:0C08DA0048656C6C6F20426F736368000F
:0708EE00C1000308FF08DA56
:030023000208E6EA
:0808E600309904D200C29932DE
:10088C00D2AFD2ACE589540F4420F58975985075D8
:10089C008DFAD28EAB08AA09A90A1208C160F50517
:1008AC000AE50A7002050914F91208C1F59930001D
:0508BC00FDC20080DF19
:03000000020800F3
:0C080000787FE4F6D8FD758120020847DF
:1008C100BB010689828A83E0225002E722BBFE0235
:0908D100E32289828A83E4932268
:10080C0002088CE493A3F8E493A34003F68001F26E
:10081C0008DFF48029E493A3F85407240CC8C333ED
:10082C00C4540F4420C8834004F456800146F6DFBC
:10083C00E4800B01020408102040809008EEE47E56
:10084C00019360BCA3FF543F30E509541FFEE493B1
:10085C00A360010ECF54C025E060A840B8E493A378
:10086C00FAE493A3F8E493A3C8C582C8CAC583CAA3
:10087C00F0A3C8C582C8CAC583CADFE9DEE780BE5B
:0108F5000002
:00000001FF
